{
  "contractName": "CBAuction",
  "abi": [
    {
      "constant": true,
      "inputs": [],
      "name": "successfulBbidderAddress",
      "outputs": [
        {
          "name": "",
          "type": "address"
        }
      ],
      "payable": false,
      "stateMutability": "view",
      "type": "function",
      "signature": "0x1af8434f"
    },
    {
      "constant": true,
      "inputs": [],
      "name": "exhibitionTokenId",
      "outputs": [
        {
          "name": "",
          "type": "uint256"
        }
      ],
      "payable": false,
      "stateMutability": "view",
      "type": "function",
      "signature": "0x66822d1f"
    },
    {
      "constant": true,
      "inputs": [],
      "name": "owner",
      "outputs": [
        {
          "name": "",
          "type": "address"
        }
      ],
      "payable": false,
      "stateMutability": "view",
      "type": "function",
      "signature": "0x8da5cb5b"
    },
    {
      "constant": true,
      "inputs": [],
      "name": "cbQuestAssetNFT",
      "outputs": [
        {
          "name": "",
          "type": "address"
        }
      ],
      "payable": false,
      "stateMutability": "view",
      "type": "function",
      "signature": "0xac986ba3"
    },
    {
      "constant": true,
      "inputs": [],
      "name": "phase",
      "outputs": [
        {
          "name": "",
          "type": "uint8"
        }
      ],
      "payable": false,
      "stateMutability": "view",
      "type": "function",
      "signature": "0xb1c9fe6e"
    },
    {
      "constant": true,
      "inputs": [],
      "name": "exhibitorAddress",
      "outputs": [
        {
          "name": "",
          "type": "address"
        }
      ],
      "payable": false,
      "stateMutability": "view",
      "type": "function",
      "signature": "0xc47399a3"
    },
    {
      "inputs": [],
      "payable": true,
      "stateMutability": "payable",
      "type": "constructor",
      "signature": "constructor"
    },
    {
      "anonymous": false,
      "inputs": [
        {
          "indexed": false,
          "name": "bidder",
          "type": "address"
        },
        {
          "indexed": false,
          "name": "name",
          "type": "string"
        },
        {
          "indexed": false,
          "name": "addvalue",
          "type": "uint256"
        }
      ],
      "name": "BidLog",
      "type": "event",
      "signature": "0x7dd4c211907874d2cdfc191e2a7d50490253f742a1c58a0ed971b037d6a965ac"
    },
    {
      "anonymous": false,
      "inputs": [
        {
          "indexed": false,
          "name": "from",
          "type": "address"
        },
        {
          "indexed": false,
          "name": "to",
          "type": "address"
        },
        {
          "indexed": false,
          "name": "value",
          "type": "uint256"
        }
      ],
      "name": "WidhDrawLog",
      "type": "event",
      "signature": "0xa61f7d012bf6b9514c7e0b4d7a9c95661917c09620f022fb6e7898fb60c1c4ef"
    },
    {
      "constant": false,
      "inputs": [
        {
          "name": "_addr",
          "type": "address"
        },
        {
          "name": "_tokenId",
          "type": "uint256"
        }
      ],
      "name": "exhibitNFT",
      "outputs": [],
      "payable": false,
      "stateMutability": "nonpayable",
      "type": "function",
      "signature": "0x7e4d4536"
    },
    {
      "constant": false,
      "inputs": [
        {
          "name": "_addr",
          "type": "address"
        }
      ],
      "name": "set721ContractAddress",
      "outputs": [],
      "payable": false,
      "stateMutability": "nonpayable",
      "type": "function",
      "signature": "0x58d5d666"
    },
    {
      "constant": true,
      "inputs": [
        {
          "name": "_tokenId",
          "type": "uint256"
        }
      ],
      "name": "checkApproved",
      "outputs": [
        {
          "name": "",
          "type": "address"
        }
      ],
      "payable": false,
      "stateMutability": "view",
      "type": "function",
      "signature": "0xaf3be4d8"
    },
    {
      "constant": false,
      "inputs": [
        {
          "name": "_name",
          "type": "string"
        }
      ],
      "name": "firstBid",
      "outputs": [],
      "payable": true,
      "stateMutability": "payable",
      "type": "function",
      "signature": "0x149b382b"
    },
    {
      "constant": false,
      "inputs": [],
      "name": "addBid",
      "outputs": [],
      "payable": true,
      "stateMutability": "payable",
      "type": "function",
      "signature": "0x782a5c82"
    },
    {
      "constant": true,
      "inputs": [],
      "name": "getBiddersNum",
      "outputs": [
        {
          "name": "",
          "type": "uint256"
        }
      ],
      "payable": false,
      "stateMutability": "view",
      "type": "function",
      "signature": "0x8f72a84c"
    },
    {
      "constant": true,
      "inputs": [
        {
          "name": "_idx",
          "type": "uint256"
        }
      ],
      "name": "getBidderInfoByIndex",
      "outputs": [
        {
          "name": "",
          "type": "address"
        },
        {
          "name": "",
          "type": "string"
        },
        {
          "name": "",
          "type": "uint256"
        }
      ],
      "payable": false,
      "stateMutability": "view",
      "type": "function",
      "signature": "0x3e2302b9"
    },
    {
      "constant": true,
      "inputs": [
        {
          "name": "_addr",
          "type": "address"
        }
      ],
      "name": "getBidderInfoByAddr",
      "outputs": [
        {
          "name": "",
          "type": "string"
        },
        {
          "name": "",
          "type": "uint256"
        }
      ],
      "payable": false,
      "stateMutability": "view",
      "type": "function",
      "signature": "0x1cc1641a"
    },
    {
      "constant": false,
      "inputs": [],
      "name": "closeAuction",
      "outputs": [],
      "payable": false,
      "stateMutability": "nonpayable",
      "type": "function",
      "signature": "0x378252f2"
    },
    {
      "constant": true,
      "inputs": [],
      "name": "calcHighestBidder",
      "outputs": [
        {
          "name": "",
          "type": "address"
        },
        {
          "name": "",
          "type": "uint256"
        },
        {
          "name": "",
          "type": "string"
        }
      ],
      "payable": false,
      "stateMutability": "view",
      "type": "function",
      "signature": "0x03706839"
    },
    {
      "constant": false,
      "inputs": [],
      "name": "transferNFT",
      "outputs": [],
      "payable": false,
      "stateMutability": "nonpayable",
      "type": "function",
      "signature": "0xa4fa3734"
    },
    {
      "constant": false,
      "inputs": [],
      "name": "withDrawBidders",
      "outputs": [],
      "payable": false,
      "stateMutability": "nonpayable",
      "type": "function",
      "signature": "0x2fc77661"
    },
    {
      "constant": false,
      "inputs": [],
      "name": "withDrawAuctionMaster",
      "outputs": [],
      "payable": false,
      "stateMutability": "nonpayable",
      "type": "function",
      "signature": "0x0e03cf9d"
    },
    {
      "constant": true,
      "inputs": [],
      "name": "getContractBalance",
      "outputs": [
        {
          "name": "",
          "type": "uint256"
        }
      ],
      "payable": false,
      "stateMutability": "view",
      "type": "function",
      "signature": "0x6f9fb98a"
    },
    {
      "constant": false,
      "inputs": [],
      "name": "test_FORCE_CLOSED",
      "outputs": [],
      "payable": false,
      "stateMutability": "nonpayable",
      "type": "function",
      "signature": "0x5d59b652"
    }
  ],
  "bytecode": "0x60806040526000600160146101000a81548160ff0219169083600381111561002357fe5b0217905550336000806101000a81548173ffffffffffffffffffffffffffffffffffffffff021916908373ffffffffffffffffffffffffffffffffffffffff160217905550611bf7806100776000396000f3fe608060405260043610610147576000357c01000000000000000000000000000000000000000000000000000000009004806366822d1f116100c85780638f72a84c1161008c5780638f72a84c146106a6578063a4fa3734146106d1578063ac986ba3146106e8578063af3be4d81461073f578063b1c9fe6e146107ba578063c47399a3146107f357610147565b806366822d1f146105945780636f9fb98a146105bf578063782a5c82146105ea5780637e4d4536146105f45780638da5cb5b1461064f57610147565b80632fc776611161010f5780632fc7766114610410578063378252f2146104275780633e2302b91461043e57806358d5d6661461052c5780635d59b6521461057d57610147565b8063037068391461014c5780630e03cf9d14610216578063149b382b1461022d5780631af8434f146102e85780631cc1641a1461033f575b600080fd5b34801561015857600080fd5b5061016161084a565b604051808473ffffffffffffffffffffffffffffffffffffffff1673ffffffffffffffffffffffffffffffffffffffff16815260200183815260200180602001828103825283818151815260200191508051906020019080838360005b838110156101d95780820151818401526020810190506101be565b50505050905090810190601f1680156102065780820380516001836020036101000a031916815260200191505b5094505050505060405180910390f35b34801561022257600080fd5b5061022b610acb565b005b6102e66004803603602081101561024357600080fd5b810190808035906020019064010000000081111561026057600080fd5b82018360208201111561027257600080fd5b8035906020019184600183028401116401000000008311171561029457600080fd5b91908080601f016020809104026020016040519081016040528093929190818152602001838380828437600081840152601f19601f820116905080830192505050505050509192919290505050610b86565b005b3480156102f457600080fd5b506102fd610c99565b604051808273ffffffffffffffffffffffffffffffffffffffff1673ffffffffffffffffffffffffffffffffffffffff16815260200191505060405180910390f35b34801561034b57600080fd5b5061038e6004803603602081101561036257600080fd5b81019080803573ffffffffffffffffffffffffffffffffffffffff169060200190929190505050610cbf565b6040518080602001838152602001828103825284818151815260200191508051906020019080838360005b838110156103d45780820151818401526020810190506103b9565b50505050905090810190601f1680156104015780820380516001836020036101000a031916815260200191505b50935050505060405180910390f35b34801561041c57600080fd5b50610425610de7565b005b34801561043357600080fd5b5061043c611016565b005b34801561044a57600080fd5b506104776004803603602081101561046157600080fd5b810190808035906020019092919050505061111d565b604051808473ffffffffffffffffffffffffffffffffffffffff1673ffffffffffffffffffffffffffffffffffffffff16815260200180602001838152602001828103825284818151815260200191508051906020019080838360005b838110156104ef5780820151818401526020810190506104d4565b50505050905090810190601f16801561051c5780820380516001836020036101000a031916815260200191505b5094505050505060405180910390f35b34801561053857600080fd5b5061057b6004803603602081101561054f57600080fd5b81019080803573ffffffffffffffffffffffffffffffffffffffff1690602001909291905050506112f7565b005b34801561058957600080fd5b5061059261133b565b005b3480156105a057600080fd5b506105a9611361565b6040518082815260200191505060405180910390f35b3480156105cb57600080fd5b506105d4611367565b6040518082815260200191505060405180910390f35b6105f2611386565b005b34801561060057600080fd5b5061064d6004803603604081101561061757600080fd5b81019080803573ffffffffffffffffffffffffffffffffffffffff16906020019092919080359060200190929190505050611517565b005b34801561065b57600080fd5b50610664611602565b604051808273ffffffffffffffffffffffffffffffffffffffff1673ffffffffffffffffffffffffffffffffffffffff16815260200191505060405180910390f35b3480156106b257600080fd5b506106bb611627565b6040518082815260200191505060405180910390f35b3480156106dd57600080fd5b506106e6611634565b005b3480156106f457600080fd5b506106fd611974565b604051808273ffffffffffffffffffffffffffffffffffffffff1673ffffffffffffffffffffffffffffffffffffffff16815260200191505060405180910390f35b34801561074b57600080fd5b506107786004803603602081101561076257600080fd5b810190808035906020019092919050505061199a565b604051808273ffffffffffffffffffffffffffffffffffffffff1673ffffffffffffffffffffffffffffffffffffffff16815260200191505060405180910390f35b3480156107c657600080fd5b506107cf611aed565b604051808260038111156107df57fe5b60ff16815260200191505060405180910390f35b3480156107ff57600080fd5b50610808611b00565b604051808273ffffffffffffffffffffffffffffffffffffffff1673ffffffffffffffffffffffffffffffffffffffff16815260200191505060405180910390f35b6000806060600180600381111561085d57fe5b600160149054906101000a900460ff16600381111561087857fe5b14151561088457600080fd5b60008060008090505b6004805490508110156109df5781600660006004848154811015156108ae57fe5b9060005260206000200160009054906101000a900473ffffffffffffffffffffffffffffffffffffffff1673ffffffffffffffffffffffffffffffffffffffff1673ffffffffffffffffffffffffffffffffffffffff1681526020019081526020016000205411156109d2576006600060048381548110151561092d57fe5b9060005260206000200160009054906101000a900473ffffffffffffffffffffffffffffffffffffffff1673ffffffffffffffffffffffffffffffffffffffff1673ffffffffffffffffffffffffffffffffffffffff1681526020019081526020016000205491506004818154811015156109a457fe5b9060005260206000200160009054906101000a900473ffffffffffffffffffffffffffffffffffffffff1692505b808060010191505061088d565b508181600560008573ffffffffffffffffffffffffffffffffffffffff1673ffffffffffffffffffffffffffffffffffffffff168152602001908152602001600020808054600181600116156101000203166002900480601f016020809104026020016040519081016040528092919081815260200182805460018160011615610100020316600290048015610ab65780601f10610a8b57610100808354040283529160200191610ab6565b820191906000526020600020905b815481529060010190602001808311610a9957829003601f168201915b50505050509050955095509550505050909192565b3373ffffffffffffffffffffffffffffffffffffffff166000809054906101000a900473ffffffffffffffffffffffffffffffffffffffff1673ffffffffffffffffffffffffffffffffffffffff16141515610b2657600080fd5b3373ffffffffffffffffffffffffffffffffffffffff166108fc3073ffffffffffffffffffffffffffffffffffffffff16319081150290604051600060405180830381858888f19350505050158015610b83573d6000803e3d6000fd5b50565b6000600660003373ffffffffffffffffffffffffffffffffffffffff1673ffffffffffffffffffffffffffffffffffffffff16815260200190815260200160002054141515610bd457600080fd5b610bdc611386565b80600560003373ffffffffffffffffffffffffffffffffffffffff1673ffffffffffffffffffffffffffffffffffffffff1681526020019081526020016000209080519060200190610c2f929190611b26565b5060043390806001815401808255809150509060018203906000526020600020016000909192909190916101000a81548173ffffffffffffffffffffffffffffffffffffffff021916908373ffffffffffffffffffffffffffffffffffffffff1602179055505050565b600760009054906101000a900473ffffffffffffffffffffffffffffffffffffffff1681565b60606000600560008473ffffffffffffffffffffffffffffffffffffffff1673ffffffffffffffffffffffffffffffffffffffff168152602001908152602001600020600660008573ffffffffffffffffffffffffffffffffffffffff1673ffffffffffffffffffffffffffffffffffffffff16815260200190815260200160002054818054600181600116156101000203166002900480601f016020809104026020016040519081016040528092919081815260200182805460018160011615610100020316600290048015610dd75780601f10610dac57610100808354040283529160200191610dd7565b820191906000526020600020905b815481529060010190602001808311610dba57829003601f168201915b5050505050915091509150915091565b6003806003811115610df557fe5b600160149054906101000a900460ff166003811115610e1057fe5b141515610e1c57600080fd5b6000600660003373ffffffffffffffffffffffffffffffffffffffff1673ffffffffffffffffffffffffffffffffffffffff16815260200190815260200160002054111515610e6a57600080fd5b3373ffffffffffffffffffffffffffffffffffffffff166108fc600660003373ffffffffffffffffffffffffffffffffffffffff1673ffffffffffffffffffffffffffffffffffffffff168152602001908152602001600020549081150290604051600060405180830381858888f19350505050158015610eef573d6000803e3d6000fd5b506000600660003373ffffffffffffffffffffffffffffffffffffffff1673ffffffffffffffffffffffffffffffffffffffff168152602001908152602001600020819055507fa61f7d012bf6b9514c7e0b4d7a9c95661917c09620f022fb6e7898fb60c1c4ef3033600660003373ffffffffffffffffffffffffffffffffffffffff1673ffffffffffffffffffffffffffffffffffffffff16815260200190815260200160002054604051808473ffffffffffffffffffffffffffffffffffffffff1673ffffffffffffffffffffffffffffffffffffffff1681526020018373ffffffffffffffffffffffffffffffffffffffff1673ffffffffffffffffffffffffffffffffffffffff168152602001828152602001935050505060405180910390a150565b600180600381111561102457fe5b600160149054906101000a900460ff16600381111561103f57fe5b14151561104b57600080fd5b3373ffffffffffffffffffffffffffffffffffffffff16600260009054906101000a900473ffffffffffffffffffffffffffffffffffffffff1673ffffffffffffffffffffffffffffffffffffffff161415156110a757600080fd5b6110af61084a565b905050600760008291906101000a81548173ffffffffffffffffffffffffffffffffffffffff021916908373ffffffffffffffffffffffffffffffffffffffff160217905550506002600160146101000a81548160ff0219169083600381111561111557fe5b021790555050565b60006060600060048481548110151561113257fe5b9060005260206000200160009054906101000a900473ffffffffffffffffffffffffffffffffffffffff166005600060048781548110151561117057fe5b9060005260206000200160009054906101000a900473ffffffffffffffffffffffffffffffffffffffff1673ffffffffffffffffffffffffffffffffffffffff1673ffffffffffffffffffffffffffffffffffffffff168152602001908152602001600020600660006004888154811015156111e857fe5b9060005260206000200160009054906101000a900473ffffffffffffffffffffffffffffffffffffffff1673ffffffffffffffffffffffffffffffffffffffff1673ffffffffffffffffffffffffffffffffffffffff16815260200190815260200160002054818054600181600116156101000203166002900480601f0160208091040260200160405190810160405280929190818152602001828054600181600116156101000203166002900480156112e35780601f106112b8576101008083540402835291602001916112e3565b820191906000526020600020905b8154815290600101906020018083116112c657829003601f168201915b505050505091509250925092509193909250565b80600160006101000a81548173ffffffffffffffffffffffffffffffffffffffff021916908373ffffffffffffffffffffffffffffffffffffffff16021790555050565b6003600160146101000a81548160ff0219169083600381111561135a57fe5b0217905550565b60035481565b60003073ffffffffffffffffffffffffffffffffffffffff1631905090565b60003411151561139557600080fd5b34600660003373ffffffffffffffffffffffffffffffffffffffff1673ffffffffffffffffffffffffffffffffffffffff168152602001908152602001600020600082825401925050819055507f7dd4c211907874d2cdfc191e2a7d50490253f742a1c58a0ed971b037d6a965ac33600560003373ffffffffffffffffffffffffffffffffffffffff1673ffffffffffffffffffffffffffffffffffffffff16815260200190815260200160002034604051808473ffffffffffffffffffffffffffffffffffffffff1673ffffffffffffffffffffffffffffffffffffffff168152602001806020018381526020018281038252848181546001816001161561010002031660029004815260200191508054600181600116156101000203166002900480156115055780601f106114da57610100808354040283529160200191611505565b820191906000526020600020905b8154815290600101906020018083116114e857829003601f168201915b505094505050505060405180910390a1565b600080600381111561152557fe5b600160149054906101000a900460ff16600381111561154057fe5b14151561154c57600080fd5b611555836112f7565b3073ffffffffffffffffffffffffffffffffffffffff166115758361199a565b73ffffffffffffffffffffffffffffffffffffffff1614156115fd578160038190555033600260006101000a81548173ffffffffffffffffffffffffffffffffffffffff021916908373ffffffffffffffffffffffffffffffffffffffff16021790555060018060146101000a81548160ff021916908360038111156115f757fe5b02179055505b505050565b6000809054906101000a900473ffffffffffffffffffffffffffffffffffffffff1681565b6000600480549050905090565b600280600381111561164257fe5b600160149054906101000a900460ff16600381111561165d57fe5b14151561166957600080fd5b3373ffffffffffffffffffffffffffffffffffffffff16600260009054906101000a900473ffffffffffffffffffffffffffffffffffffffff1673ffffffffffffffffffffffffffffffffffffffff161415156116c557600080fd5b600160009054906101000a900473ffffffffffffffffffffffffffffffffffffffff1673ffffffffffffffffffffffffffffffffffffffff166342842e0e600260009054906101000a900473ffffffffffffffffffffffffffffffffffffffff16600760009054906101000a900473ffffffffffffffffffffffffffffffffffffffff166003546040518463ffffffff167c0100000000000000000000000000000000000000000000000000000000028152600401808473ffffffffffffffffffffffffffffffffffffffff1673ffffffffffffffffffffffffffffffffffffffff1681526020018373ffffffffffffffffffffffffffffffffffffffff1673ffffffffffffffffffffffffffffffffffffffff1681526020018281526020019350505050600060405180830381600087803b15801561180457600080fd5b505af1158015611818573d6000803e3d6000fd5b50505050600260009054906101000a900473ffffffffffffffffffffffffffffffffffffffff1673ffffffffffffffffffffffffffffffffffffffff166108fc60066000600760009054906101000a900473ffffffffffffffffffffffffffffffffffffffff1673ffffffffffffffffffffffffffffffffffffffff1673ffffffffffffffffffffffffffffffffffffffff168152602001908152602001600020549081150290604051600060405180830381858888f193505050501580156118e5573d6000803e3d6000fd5b50600060066000600760009054906101000a900473ffffffffffffffffffffffffffffffffffffffff1673ffffffffffffffffffffffffffffffffffffffff1673ffffffffffffffffffffffffffffffffffffffff168152602001908152602001600020819055506003600160146101000a81548160ff0219169083600381111561196c57fe5b021790555050565b600160009054906101000a900473ffffffffffffffffffffffffffffffffffffffff1681565b60008073ffffffffffffffffffffffffffffffffffffffff16600160009054906101000a900473ffffffffffffffffffffffffffffffffffffffff1673ffffffffffffffffffffffffffffffffffffffff16141515611ac457600160009054906101000a900473ffffffffffffffffffffffffffffffffffffffff1673ffffffffffffffffffffffffffffffffffffffff1663081812fc836040518263ffffffff167c01000000000000000000000000000000000000000000000000000000000281526004018082815260200191505060206040518083038186803b158015611a8257600080fd5b505afa158015611a96573d6000803e3d6000fd5b505050506040513d6020811015611aac57600080fd5b81019080805190602001909291905050509050611ae8565b7fffffffffffffffffffffffffffffffffffffffffffffffffffffffffffffffff90505b919050565b600160149054906101000a900460ff1681565b600260009054906101000a900473ffffffffffffffffffffffffffffffffffffffff1681565b828054600181600116156101000203166002900490600052602060002090601f016020900481019282601f10611b6757805160ff1916838001178555611b95565b82800160010185558215611b95579182015b82811115611b94578251825591602001919060010190611b79565b5b509050611ba29190611ba6565b5090565b611bc891905b80821115611bc4576000816000905550600101611bac565b5090565b9056fea165627a7a72305820fdccadf99df183d67db4abac402720c2b4d31a05b9c3de33e779454863bb0b910029",
  "source": "pragma solidity >=0.4.21 <0.6.0;\r\nimport \"openzeppelin-solidity/contracts/token/ERC721/IERC721.sol\";\r\n\r\ncontract CBAuction {\r\n    address public owner;\r\n    IERC721 public cbQuestAssetNFT;\r\n    enum phases {exhibit, bid, bidend, closed}\r\n    phases public phase = phases.exhibit;\r\n    address payable public exhibitorAddress;\r\n    uint256 public exhibitionTokenId;\r\n    address[] biddersList;\r\n    mapping(address => string) bidderName;\r\n    mapping(address => uint) bidderBalance;\r\n    address public successfulBbidderAddress;\r\n    event BidLog(address bidder, string name, uint addvalue);\r\n    event WidhDrawLog(address from, address to, uint value);\r\n\r\n    modifier atPhase(phases _phase) {\r\n        require(phase == _phase);\r\n        _;\r\n    }\r\n\r\n    constructor() public payable {\r\n        owner = msg.sender;\r\n    }\r\n\r\n    function exhibitNFT(address _addr, uint256 _tokenId) public atPhase(phases.exhibit) {\r\n        set721ContractAddress(_addr);\r\n        if(checkApproved(_tokenId) == address(this)) {\r\n            exhibitionTokenId = _tokenId;\r\n            exhibitorAddress = msg.sender;\r\n            phase = phases.bid;\r\n        }\r\n    }\r\n\r\n    function set721ContractAddress(address _addr) public {\r\n        cbQuestAssetNFT = IERC721(_addr);\r\n    }\r\n\r\n    function checkApproved(uint256 _tokenId) public view returns (address) {\r\n        if(address(cbQuestAssetNFT) != address(0)) {\r\n            return cbQuestAssetNFT.getApproved(_tokenId);\r\n        }\r\n        return address(-1);\r\n    }\r\n\r\n    function firstBid(string memory _name) public payable {\r\n        require(bidderBalance[msg.sender] == 0);\r\n        addBid();\r\n        bidderName[msg.sender] = _name;\r\n        biddersList.push(msg.sender);\r\n    }\r\n\r\n    function addBid() public payable {\r\n        require(msg.value > 0);\r\n        bidderBalance[msg.sender] += msg.value;\r\n        emit BidLog(msg.sender, bidderName[msg.sender], msg.value);\r\n    }\r\n\r\n    function getBiddersNum() public view returns (uint) {\r\n        return biddersList.length;\r\n    }\r\n\r\n    function getBidderInfoByIndex(uint _idx) public view returns (address, string memory, uint) {\r\n        return (biddersList[_idx], bidderName[biddersList[_idx]], bidderBalance[biddersList[_idx]]);\r\n    }\r\n\r\n    function getBidderInfoByAddr(address _addr) public view returns (string memory, uint) {\r\n        return (bidderName[_addr], bidderBalance[_addr]);\r\n    }\r\n\r\n    function closeAuction() public atPhase(phases.bid) {\r\n        require(exhibitorAddress == msg.sender);\r\n        (successfulBbidderAddress,,) = calcHighestBidder();\r\n        phase = phases.bidend;\r\n    }\r\n\r\n    function calcHighestBidder() public view atPhase(phases.bid) returns (address, uint, string memory) {\r\n        address highestBidderAddress;\r\n        uint highestBidBalance;\r\n        for(uint i = 0; i < biddersList.length; i++) {\r\n            if(bidderBalance[biddersList[i]] > highestBidBalance) {\r\n                highestBidBalance = bidderBalance[biddersList[i]];\r\n                highestBidderAddress = biddersList[i];\r\n            }\r\n        }\r\n        return (highestBidderAddress, highestBidBalance, bidderName[highestBidderAddress]);\r\n    }\r\n\r\n    function transferNFT() public atPhase(phases.bidend) {\r\n        require(exhibitorAddress == msg.sender);\r\n        cbQuestAssetNFT.safeTransferFrom(exhibitorAddress, successfulBbidderAddress, exhibitionTokenId);\r\n        exhibitorAddress.transfer(bidderBalance[successfulBbidderAddress]);\r\n        bidderBalance[successfulBbidderAddress] = 0;\r\n        phase = phases.closed;\r\n    }\r\n\r\n    function withDrawBidders() public atPhase(phases.closed) {\r\n        require(bidderBalance[msg.sender] > 0);\r\n        msg.sender.transfer(bidderBalance[msg.sender]);\r\n        bidderBalance[msg.sender] = 0;\r\n        emit WidhDrawLog(address(this), msg.sender, bidderBalance[msg.sender]);\r\n    }\r\n\r\n    function withDrawAuctionMaster() public {\r\n        require(owner == msg.sender);\r\n        msg.sender.transfer(address(this).balance);\r\n    }\r\n\r\n    function getContractBalance() public view returns (uint) {\r\n        return address(this).balance;\r\n    }\r\n\r\n    function test_FORCE_CLOSED() public {\r\n        phase = phases.closed;\r\n    }\r\n}\r\n",
  "sourcePath": "/Users/vulture0902/work/x_17_tobisako/_src/xx_6_cbquest/contracts/cbauction.sol",
  "compiler": {
    "name": "solc",
    "version": "0.5.2+commit.1df8f40c.Emscripten.clang"
  },
  "schemaVersion": "3.0.3",
  "updatedAt": "2019-03-26T11:26:57.335Z",
  "devdoc": {
    "methods": {}
  },
  "userdoc": {
    "methods": {}
  }
}